{"abi":[{"type":"constructor","inputs":[{"name":"_token","type":"address","internalType":"contract IERC20"},{"name":"_owner","type":"address","internalType":"address"}],"stateMutability":"nonpayable"},{"type":"function","name":"claim","inputs":[],"outputs":[],"stateMutability":"nonpayable"},{"type":"function","name":"createVestingSchedule","inputs":[{"name":"beneficiary","type":"address","internalType":"address"},{"name":"totalAmount","type":"uint256","internalType":"uint256"},{"name":"startTime","type":"uint256","internalType":"uint256"},{"name":"duration","type":"uint256","internalType":"uint256"}],"outputs":[],"stateMutability":"nonpayable"},{"type":"function","name":"getClaimableAmount","inputs":[{"name":"beneficiary","type":"address","internalType":"address"}],"outputs":[{"name":"","type":"uint256","internalType":"uint256"}],"stateMutability":"view"},{"type":"function","name":"getVestingSchedule","inputs":[{"name":"beneficiary","type":"address","internalType":"address"}],"outputs":[{"name":"","type":"tuple","internalType":"struct TokenVester.VestingSchedule","components":[{"name":"beneficiary","type":"address","internalType":"address"},{"name":"totalAmount","type":"uint256","internalType":"uint256"},{"name":"startTime","type":"uint256","internalType":"uint256"},{"name":"duration","type":"uint256","internalType":"uint256"},{"name":"claimedAmount","type":"uint256","internalType":"uint256"},{"name":"revoked","type":"bool","internalType":"bool"}]}],"stateMutability":"view"},{"type":"function","name":"hasVestingSchedule","inputs":[{"name":"","type":"address","internalType":"address"}],"outputs":[{"name":"","type":"bool","internalType":"bool"}],"stateMutability":"view"},{"type":"function","name":"owner","inputs":[],"outputs":[{"name":"","type":"address","internalType":"address"}],"stateMutability":"view"},{"type":"function","name":"renounceOwnership","inputs":[],"outputs":[],"stateMutability":"nonpayable"},{"type":"function","name":"revokeVesting","inputs":[{"name":"beneficiary","type":"address","internalType":"address"}],"outputs":[],"stateMutability":"nonpayable"},{"type":"function","name":"token","inputs":[],"outputs":[{"name":"","type":"address","internalType":"contract IERC20"}],"stateMutability":"view"},{"type":"function","name":"transferOwnership","inputs":[{"name":"newOwner","type":"address","internalType":"address"}],"outputs":[],"stateMutability":"nonpayable"},{"type":"function","name":"vestingSchedules","inputs":[{"name":"","type":"address","internalType":"address"}],"outputs":[{"name":"beneficiary","type":"address","internalType":"address"},{"name":"totalAmount","type":"uint256","internalType":"uint256"},{"name":"startTime","type":"uint256","internalType":"uint256"},{"name":"duration","type":"uint256","internalType":"uint256"},{"name":"claimedAmount","type":"uint256","internalType":"uint256"},{"name":"revoked","type":"bool","internalType":"bool"}],"stateMutability":"view"},{"type":"function","name":"withdrawExcessTokens","inputs":[{"name":"amount","type":"uint256","internalType":"uint256"}],"outputs":[],"stateMutability":"nonpayable"},{"type":"event","name":"OwnershipTransferred","inputs":[{"name":"previousOwner","type":"address","indexed":true,"internalType":"address"},{"name":"newOwner","type":"address","indexed":true,"internalType":"address"}],"anonymous":false},{"type":"event","name":"TokensClaimed","inputs":[{"name":"beneficiary","type":"address","indexed":true,"internalType":"address"},{"name":"amount","type":"uint256","indexed":false,"internalType":"uint256"}],"anonymous":false},{"type":"event","name":"VestingRevoked","inputs":[{"name":"beneficiary","type":"address","indexed":true,"internalType":"address"},{"name":"unvestedAmount","type":"uint256","indexed":false,"internalType":"uint256"}],"anonymous":false},{"type":"event","name":"VestingScheduleCreated","inputs":[{"name":"beneficiary","type":"address","indexed":true,"internalType":"address"},{"name":"totalAmount","type":"uint256","indexed":false,"internalType":"uint256"},{"name":"startTime","type":"uint256","indexed":false,"internalType":"uint256"},{"name":"duration","type":"uint256","indexed":false,"internalType":"uint256"}],"anonymous":false},{"type":"error","name":"InsufficientBalance","inputs":[]},{"type":"error","name":"InvalidAmount","inputs":[]},{"type":"error","name":"InvalidDuration","inputs":[]},{"type":"error","name":"NoTokensToClaim","inputs":[]},{"type":"error","name":"NoVestingSchedule","inputs":[]},{"type":"error","name":"OwnableInvalidOwner","inputs":[{"name":"owner","type":"address","internalType":"address"}]},{"type":"error","name":"OwnableUnauthorizedAccount","inputs":[{"name":"account","type":"address","internalType":"address"}]},{"type":"error","name":"ReentrancyGuardReentrantCall","inputs":[]},{"type":"error","name":"SafeERC20FailedOperation","inputs":[{"name":"token","type":"address","internalType":"address"}]},{"type":"error","name":"VestingAlreadyExists","inputs":[]},{"type":"error","name":"VestingAlreadyRevoked","inputs":[]}],"bytecode":{"object":"0x60a060405234801561000f575f5ffd5b50604051611c32380380611c3283398181016040528101906100319190610250565b8060015f819055505f73ffffffffffffffffffffffffffffffffffffffff168173ffffffffffffffffffffffffffffffffffffffff16036100a9575f6040517f1e4fbdf70000000000000000000000000000000000000000000000000000000081526004016100a0919061029d565b60405180910390fd5b6100b8816100f460201b60201c565b508173ffffffffffffffffffffffffffffffffffffffff1660808173ffffffffffffffffffffffffffffffffffffffff168152505050506102b6565b5f60015f9054906101000a900473ffffffffffffffffffffffffffffffffffffffff1690508160015f6101000a81548173ffffffffffffffffffffffffffffffffffffffff021916908373ffffffffffffffffffffffffffffffffffffffff1602179055508173ffffffffffffffffffffffffffffffffffffffff168173ffffffffffffffffffffffffffffffffffffffff167f8be0079c531659141344cd1fd0a4f28419497f9722a3daafe3b4186f6b6457e060405160405180910390a35050565b5f5ffd5b5f73ffffffffffffffffffffffffffffffffffffffff82169050919050565b5f6101e4826101bb565b9050919050565b5f6101f5826101da565b9050919050565b610205816101eb565b811461020f575f5ffd5b50565b5f81519050610220816101fc565b92915050565b61022f816101da565b8114610239575f5ffd5b50565b5f8151905061024a81610226565b92915050565b5f5f60408385031215610266576102656101b7565b5b5f61027385828601610212565b92505060206102848582860161023c565b9150509250929050565b610297816101da565b82525050565b5f6020820190506102b05f83018461028e565b92915050565b6080516119416102f15f395f8181610421015281816104fd0152818161069401528181610b3a01528181610db40152610fde01526119415ff3fe608060405234801561000f575f5ffd5b50600436106100b2575f3560e01c8063b4a388931161006f578063b4a3889314610150578063e111f6b414610180578063e12f3a611461019c578063f2fde38b146101cc578063fc0c546a146101e8578063fdb20ccb14610206576100b2565b80633b0da260146100b65780633f4e8e80146100d25780634e71d92d146100ee578063715018a6146100f85780638da5cb5b146101025780639f82906314610120575b5f5ffd5b6100d060048036038101906100cb919061143d565b61023b565b005b6100ec60048036038101906100e7919061149b565b610596565b005b6100f661091f565b005b610100610bd9565b005b61010a610bec565b604051610117919061150e565b60405180910390f35b61013a6004803603810190610135919061143d565b610c14565b60405161014791906115d8565b60405180910390f35b61016a6004803603810190610165919061143d565b610d81565b6040516101779190611600565b60405180910390f35b61019a60048036038101906101959190611619565b610d9e565b005b6101b660048036038101906101b1919061143d565b610dfb565b6040516101c39190611653565b60405180910390f35b6101e660048036038101906101e1919061143d565b610f58565b005b6101f0610fdc565b6040516101fd91906116c7565b60405180910390f35b610220600480360381019061021b919061143d565b611000565b604051610232969594939291906116e0565b60405180910390f35b610243611063565b60035f8273ffffffffffffffffffffffffffffffffffffffff1673ffffffffffffffffffffffffffffffffffffffff1681526020019081526020015f205f9054906101000a900460ff166102c3576040517f66ef36c900000000000000000000000000000000000000000000000000000000815260040160405180910390fd5b5f60025f8373ffffffffffffffffffffffffffffffffffffffff1673ffffffffffffffffffffffffffffffffffffffff1681526020019081526020015f209050806005015f9054906101000a900460ff161561034b576040517f56994e5500000000000000000000000000000000000000000000000000000000815260040160405180910390fd5b5f6103f6826040518060c00160405290815f82015f9054906101000a900473ffffffffffffffffffffffffffffffffffffffff1673ffffffffffffffffffffffffffffffffffffffff1673ffffffffffffffffffffffffffffffffffffffff16815260200160018201548152602001600282015481526020016003820154815260200160048201548152602001600582015f9054906101000a900460ff1615151515815250506110ea565b90505f8111156104b45780826004015f828254610413919061176c565b9250508190555061046583827f000000000000000000000000000000000000000000000000000000000000000073ffffffffffffffffffffffffffffffffffffffff166111669092919063ffffffff16565b8273ffffffffffffffffffffffffffffffffffffffff167f896e034966eaaf1adc54acc0f257056febbd300c9e47182cf761982cf1f5e430826040516104ab9190611653565b60405180910390a25b5f826004015483600101546104c9919061179f565b90506001836005015f6101000a81548160ff0219169083151502179055505f811115610542576105416104fa610bec565b827f000000000000000000000000000000000000000000000000000000000000000073ffffffffffffffffffffffffffffffffffffffff166111669092919063ffffffff16565b5b8373ffffffffffffffffffffffffffffffffffffffff167f57c76f5e278bfbd4eeb5207d287aa5a1a9e1113c65f7eefa540e379a2774d13b826040516105889190611653565b60405180910390a250505050565b61059e611063565b60035f8573ffffffffffffffffffffffffffffffffffffffff1673ffffffffffffffffffffffffffffffffffffffff1681526020019081526020015f205f9054906101000a900460ff161561061f576040517fe7075d2a00000000000000000000000000000000000000000000000000000000815260040160405180910390fd5b5f8303610658576040517f2c5211c600000000000000000000000000000000000000000000000000000000815260040160405180910390fd5b5f8103610691576040517f7616640100000000000000000000000000000000000000000000000000000000815260040160405180910390fd5b827f000000000000000000000000000000000000000000000000000000000000000073ffffffffffffffffffffffffffffffffffffffff166370a08231306040518263ffffffff1660e01b81526004016106eb919061150e565b602060405180830381865afa158015610706573d5f5f3e3d5ffd5b505050506040513d601f19601f8201168201806040525081019061072a91906117e6565b1015610762576040517ff4d678b800000000000000000000000000000000000000000000000000000000815260040160405180910390fd5b6040518060c001604052808573ffffffffffffffffffffffffffffffffffffffff1681526020018481526020018381526020018281526020015f81526020015f151581525060025f8673ffffffffffffffffffffffffffffffffffffffff1673ffffffffffffffffffffffffffffffffffffffff1681526020019081526020015f205f820151815f015f6101000a81548173ffffffffffffffffffffffffffffffffffffffff021916908373ffffffffffffffffffffffffffffffffffffffff1602179055506020820151816001015560408201518160020155606082015181600301556080820151816004015560a0820151816005015f6101000a81548160ff021916908315150217905550905050600160035f8673ffffffffffffffffffffffffffffffffffffffff1673ffffffffffffffffffffffffffffffffffffffff1681526020019081526020015f205f6101000a81548160ff0219169083151502179055508373ffffffffffffffffffffffffffffffffffffffff167f892f1a841b10e4b041cc41d8cc47c6a6049f1ff5fa272ddf47a0aa5ad8f59d1384848460405161091193929190611811565b60405180910390a250505050565b6109276111e5565b5f33905060035f8273ffffffffffffffffffffffffffffffffffffffff1673ffffffffffffffffffffffffffffffffffffffff1681526020019081526020015f205f9054906101000a900460ff166109ab576040517f66ef36c900000000000000000000000000000000000000000000000000000000815260040160405180910390fd5b5f60025f8373ffffffffffffffffffffffffffffffffffffffff1673ffffffffffffffffffffffffffffffffffffffff1681526020019081526020015f209050806005015f9054906101000a900460ff1615610a33576040517f56994e5500000000000000000000000000000000000000000000000000000000815260040160405180910390fd5b5f610ade826040518060c00160405290815f82015f9054906101000a900473ffffffffffffffffffffffffffffffffffffffff1673ffffffffffffffffffffffffffffffffffffffff1673ffffffffffffffffffffffffffffffffffffffff16815260200160018201548152602001600282015481526020016003820154815260200160048201548152602001600582015f9054906101000a900460ff1615151515815250506110ea565b90505f8103610b19576040517f0f3f861000000000000000000000000000000000000000000000000000000000815260040160405180910390fd5b80826004015f828254610b2c919061176c565b92505081905550610b7e83827f000000000000000000000000000000000000000000000000000000000000000073ffffffffffffffffffffffffffffffffffffffff166111669092919063ffffffff16565b8273ffffffffffffffffffffffffffffffffffffffff167f896e034966eaaf1adc54acc0f257056febbd300c9e47182cf761982cf1f5e43082604051610bc49190611653565b60405180910390a2505050610bd7611229565b565b610be1611063565b610bea5f611232565b565b5f60015f9054906101000a900473ffffffffffffffffffffffffffffffffffffffff16905090565b610c1c611397565b60035f8373ffffffffffffffffffffffffffffffffffffffff1673ffffffffffffffffffffffffffffffffffffffff1681526020019081526020015f205f9054906101000a900460ff16610c9c576040517f66ef36c900000000000000000000000000000000000000000000000000000000815260040160405180910390fd5b60025f8373ffffffffffffffffffffffffffffffffffffffff1673ffffffffffffffffffffffffffffffffffffffff1681526020019081526020015f206040518060c00160405290815f82015f9054906101000a900473ffffffffffffffffffffffffffffffffffffffff1673ffffffffffffffffffffffffffffffffffffffff1673ffffffffffffffffffffffffffffffffffffffff16815260200160018201548152602001600282015481526020016003820154815260200160048201548152602001600582015f9054906101000a900460ff1615151515815250509050919050565b6003602052805f5260405f205f915054906101000a900460ff1681565b610da6611063565b610df8610db1610bec565b827f000000000000000000000000000000000000000000000000000000000000000073ffffffffffffffffffffffffffffffffffffffff166111669092919063ffffffff16565b50565b5f60035f8373ffffffffffffffffffffffffffffffffffffffff1673ffffffffffffffffffffffffffffffffffffffff1681526020019081526020015f205f9054906101000a900460ff16610e52575f9050610f53565b5f60025f8473ffffffffffffffffffffffffffffffffffffffff1673ffffffffffffffffffffffffffffffffffffffff1681526020019081526020015f206040518060c00160405290815f82015f9054906101000a900473ffffffffffffffffffffffffffffffffffffffff1673ffffffffffffffffffffffffffffffffffffffff1673ffffffffffffffffffffffffffffffffffffffff16815260200160018201548152602001600282015481526020016003820154815260200160048201548152602001600582015f9054906101000a900460ff16151515158152505090508060a0015115610f46575f915050610f53565b610f4f816110ea565b9150505b919050565b610f60611063565b5f73ffffffffffffffffffffffffffffffffffffffff168173ffffffffffffffffffffffffffffffffffffffff1603610fd0575f6040517f1e4fbdf7000000000000000000000000000000000000000000000000000000008152600401610fc7919061150e565b60405180910390fd5b610fd981611232565b50565b7f000000000000000000000000000000000000000000000000000000000000000081565b6002602052805f5260405f205f91509050805f015f9054906101000a900473ffffffffffffffffffffffffffffffffffffffff1690806001015490806002015490806003015490806004015490806005015f9054906101000a900460ff16905086565b61106b6112f5565b73ffffffffffffffffffffffffffffffffffffffff16611089610bec565b73ffffffffffffffffffffffffffffffffffffffff16146110e8576110ac6112f5565b6040517f118cdaa70000000000000000000000000000000000000000000000000000000081526004016110df919061150e565b60405180910390fd5b565b5f81604001514210156110ff575f9050611161565b5f826040015142611110919061179f565b90505f8360600151821061112a578360200151905061114c565b836060015182856020015161113f9190611846565b61114991906118b4565b90505b83608001518161115c919061179f565b925050505b919050565b6111e0838473ffffffffffffffffffffffffffffffffffffffff1663a9059cbb85856040516024016111999291906118e4565b604051602081830303815290604052915060e01b6020820180517bffffffffffffffffffffffffffffffffffffffffffffffffffffffff83818316178352505050506112fc565b505050565b60025f5403611220576040517f3ee5aeb500000000000000000000000000000000000000000000000000000000815260040160405180910390fd5b60025f81905550565b60015f81905550565b5f60015f9054906101000a900473ffffffffffffffffffffffffffffffffffffffff1690508160015f6101000a81548173ffffffffffffffffffffffffffffffffffffffff021916908373ffffffffffffffffffffffffffffffffffffffff1602179055508173ffffffffffffffffffffffffffffffffffffffff168173ffffffffffffffffffffffffffffffffffffffff167f8be0079c531659141344cd1fd0a4f28419497f9722a3daafe3b4186f6b6457e060405160405180910390a35050565b5f33905090565b5f5f60205f8451602086015f885af18061131b576040513d5f823e3d81fd5b3d92505f519150505f821461133457600181141561134f565b5f8473ffffffffffffffffffffffffffffffffffffffff163b145b1561139157836040517f5274afe7000000000000000000000000000000000000000000000000000000008152600401611388919061150e565b60405180910390fd5b50505050565b6040518060c001604052805f73ffffffffffffffffffffffffffffffffffffffff1681526020015f81526020015f81526020015f81526020015f81526020015f151581525090565b5f5ffd5b5f73ffffffffffffffffffffffffffffffffffffffff82169050919050565b5f61140c826113e3565b9050919050565b61141c81611402565b8114611426575f5ffd5b50565b5f8135905061143781611413565b92915050565b5f60208284031215611452576114516113df565b5b5f61145f84828501611429565b91505092915050565b5f819050919050565b61147a81611468565b8114611484575f5ffd5b50565b5f8135905061149581611471565b92915050565b5f5f5f5f608085870312156114b3576114b26113df565b5b5f6114c087828801611429565b94505060206114d187828801611487565b93505060406114e287828801611487565b92505060606114f387828801611487565b91505092959194509250565b61150881611402565b82525050565b5f6020820190506115215f8301846114ff565b92915050565b61153081611402565b82525050565b61153f81611468565b82525050565b5f8115159050919050565b61155981611545565b82525050565b60c082015f8201516115735f850182611527565b5060208201516115866020850182611536565b5060408201516115996040850182611536565b5060608201516115ac6060850182611536565b5060808201516115bf6080850182611536565b5060a08201516115d260a0850182611550565b50505050565b5f60c0820190506115eb5f83018461155f565b92915050565b6115fa81611545565b82525050565b5f6020820190506116135f8301846115f1565b92915050565b5f6020828403121561162e5761162d6113df565b5b5f61163b84828501611487565b91505092915050565b61164d81611468565b82525050565b5f6020820190506116665f830184611644565b92915050565b5f819050919050565b5f61168f61168a611685846113e3565b61166c565b6113e3565b9050919050565b5f6116a082611675565b9050919050565b5f6116b182611696565b9050919050565b6116c1816116a7565b82525050565b5f6020820190506116da5f8301846116b8565b92915050565b5f60c0820190506116f35f8301896114ff565b6117006020830188611644565b61170d6040830187611644565b61171a6060830186611644565b6117276080830185611644565b61173460a08301846115f1565b979650505050505050565b7f4e487b71000000000000000000000000000000000000000000000000000000005f52601160045260245ffd5b5f61177682611468565b915061178183611468565b92508282019050808211156117995761179861173f565b5b92915050565b5f6117a982611468565b91506117b483611468565b92508282039050818111156117cc576117cb61173f565b5b92915050565b5f815190506117e081611471565b92915050565b5f602082840312156117fb576117fa6113df565b5b5f611808848285016117d2565b91505092915050565b5f6060820190506118245f830186611644565b6118316020830185611644565b61183e6040830184611644565b949350505050565b5f61185082611468565b915061185b83611468565b925082820261186981611468565b915082820484148315176118805761187f61173f565b5b5092915050565b7f4e487b71000000000000000000000000000000000000000000000000000000005f52601260045260245ffd5b5f6118be82611468565b91506118c983611468565b9250826118d9576118d8611887565b5b828204905092915050565b5f6040820190506118f75f8301856114ff565b6119046020830184611644565b939250505056fea26469706673582212207566aca28201d5c8eafff1444cb05abcf6ad2bc348fb45ad5dc50092e41af12964736f6c634300081b0033","linkReferences":{}},"methodIdentifiers":{"claim()":"4e71d92d","createVestingSchedule(address,uint256,uint256,uint256)":"3f4e8e80","getClaimableAmount(address)":"e12f3a61","getVestingSchedule(address)":"9f829063","hasVestingSchedule(address)":"b4a38893","owner()":"8da5cb5b","renounceOwnership()":"715018a6","revokeVesting(address)":"3b0da260","token()":"fc0c546a","transferOwnership(address)":"f2fde38b","vestingSchedules(address)":"fdb20ccb","withdrawExcessTokens(uint256)":"e111f6b4"},"id":36}